:100000000C9446000C9465000C9465000C946500FB
:100010000C9465000C9465000C9465000C946500CC
:100020000C9465000C9465000C9465000C946500BC
:100030000C9465000C94DE000C9465000C94650033
:100040000C9465000C9465000C9465000C9465009C
:100050000C9465000C9465000C9465000C9465008C
:100060000C9465000C9465000C9465000C9465007C
:100070000C9465000C9465000C9465000C9465006C
:100080000C9465000C9465000C94650011241FBE4F
:10009000CFEFD0E4DEBFCDBF11E0A0E0B1E0ECECEB
:1000A000F3E000E00BBF02C007900D92A231B10750
:1000B000D9F721E0A2E1B1E001C01D92AA31B20757
:1000C000E1F70E94BF010C94E4010C940000CF936F
:1000D000DF9300D01F92CDB7DEB789837B836A831D
:1000E00089818A3031F48A819B81BC018DE00E9434
:1000F000670080EC90E0FC018081882F90E08072A6
:100100009927892BB1F386EC90E02981FC012083AB
:1001100080E090E00F900F900F90DF91CF910895C5
:10012000CF93DF93CDB7DEB781E890E02BE0FC0101
:10013000208388E890E02DE730E0FC0131832083C4
:100140008FE690E022E0FC01208384E890E0FC014F
:100150001182108280910E0190910F01A0911001E7
:10016000B09111018093140190931501A093160191
:10017000B09317018FE590E02FE530E0F901208181
:100180002068FC0120830000DF91CF910895CF9378
:10019000DF93CDB7DEB781E890E0FC01108200006C
:1001A000DF91CF910895CF93DF93CDB7DEB781E094
:1001B000809313010000DF91CF9108951F920F9259
:1001C00000905F000F92112400905B000F922F931C
:1001D0003F934F935F936F937F938F939F93AF93CF
:1001E000BF93EF93FF93CF93DF93CDB7DEB78091AB
:1001F000140190911501A0911601B091170101977A
:10020000A109B1098093140190931501A0931601DF
:10021000B09317018091140190911501A0911601DE
:10022000B0911701892B8A2B8B2B91F40E94D3005C
:1002300080910E0190910F01A0911001B0911101D8
:100240008093140190931501A0931601B0931701A8
:100250000000DF91CF91FF91EF91BF91AF919F91FE
:100260008F917F916F915F914F913F912F910F905F
:1002700000925B000F9000925F000F901F90189506
:10028000CF93DF93CDB7DEB780911801909119011C
:100290008130910581F08130910530F082309105F7
:1002A00089F00397B1F01CC081E090E090931901B0
:1002B0008093180115C082E090E09093190180931B
:1002C00018010EC083E090E090931901809318010B
:1002D00007C081E090E0909319018093180100001D
:1002E00080911801909119018130910549F0813078
:1002F000910590F08230910539F0039749F00DC0D7
:1003000081E08093120109C082E08093120105C050
:1003100084E08093120101C000000000DF91CF91C2
:100320000895CF93DF9300D000D0CDB7DEB76983B7
:100330007A838B839C8389819A81AB81BC818093F2
:100340000E0190930F01A0931001B09311018091C1
:100350000E0190910F01A0911001B09111018093B5
:10036000140190931501A0931601B093170100009A
:100370000F900F900F900F90DF91CF910895CF9332
:10038000DF93CDB7DEB784E290E02FEFFC0120834E
:1003900085E290E0FC01108268EE73E080E090E07E
:1003A0000E9491010E94900085E290E0209112014C
:1003B000FC0120830E9440010000809113018823EA
:0C03C000E1F310921301F0CFF894FFCF8E
:1003CC0000000002000000006700000000000100B7
:0203DC0000001F
:00000001FF
